{
  "_format": "hh3-artifact-1",
  "contractName": "Crowdfund",
  "sourceName": "contracts/CrowdFund.sol",
  "abi": [
    {
      "inputs": [
        {
          "internalType": "uint256",
          "name": "_targetGoal",
          "type": "uint256"
        },
        {
          "internalType": "uint32",
          "name": "_durationInSeconds",
          "type": "uint32"
        }
      ],
      "stateMutability": "nonpayable",
      "type": "constructor"
    },
    {
      "inputs": [],
      "name": "AlreadyWithdrawn",
      "type": "error"
    },
    {
      "inputs": [],
      "name": "CampaignActive",
      "type": "error"
    },
    {
      "inputs": [],
      "name": "CampaignEnded",
      "type": "error"
    },
    {
      "inputs": [],
      "name": "GoalAlreadyMet",
      "type": "error"
    },
    {
      "inputs": [],
      "name": "GoalNotMet",
      "type": "error"
    },
    {
      "inputs": [],
      "name": "NoFundsToRefund",
      "type": "error"
    },
    {
      "inputs": [],
      "name": "NotCreator",
      "type": "error"
    },
    {
      "inputs": [],
      "name": "TransferFailed",
      "type": "error"
    },
    {
      "inputs": [],
      "name": "ZeroContribution",
      "type": "error"
    },
    {
      "anonymous": false,
      "inputs": [
        {
          "indexed": true,
          "internalType": "address",
          "name": "contributor",
          "type": "address"
        },
        {
          "indexed": false,
          "internalType": "uint256",
          "name": "amount",
          "type": "uint256"
        }
      ],
      "name": "Contributed",
      "type": "event"
    },
    {
      "anonymous": false,
      "inputs": [
        {
          "indexed": true,
          "internalType": "address",
          "name": "creator",
          "type": "address"
        },
        {
          "indexed": false,
          "internalType": "uint256",
          "name": "amount",
          "type": "uint256"
        }
      ],
      "name": "FundsWithdrawn",
      "type": "event"
    },
    {
      "anonymous": false,
      "inputs": [
        {
          "indexed": true,
          "internalType": "address",
          "name": "contributor",
          "type": "address"
        },
        {
          "indexed": false,
          "internalType": "uint256",
          "name": "amount",
          "type": "uint256"
        }
      ],
      "name": "RefundClaimed",
      "type": "event"
    },
    {
      "inputs": [],
      "name": "claimRefund",
      "outputs": [],
      "stateMutability": "nonpayable",
      "type": "function"
    },
    {
      "inputs": [],
      "name": "contribute",
      "outputs": [],
      "stateMutability": "payable",
      "type": "function"
    },
    {
      "inputs": [
        {
          "internalType": "address",
          "name": "",
          "type": "address"
        }
      ],
      "name": "contributions",
      "outputs": [
        {
          "internalType": "uint256",
          "name": "",
          "type": "uint256"
        }
      ],
      "stateMutability": "view",
      "type": "function"
    },
    {
      "inputs": [],
      "name": "creator",
      "outputs": [
        {
          "internalType": "address",
          "name": "",
          "type": "address"
        }
      ],
      "stateMutability": "view",
      "type": "function"
    },
    {
      "inputs": [],
      "name": "deadline",
      "outputs": [
        {
          "internalType": "uint32",
          "name": "",
          "type": "uint32"
        }
      ],
      "stateMutability": "view",
      "type": "function"
    },
    {
      "inputs": [],
      "name": "fundsWithdrawn",
      "outputs": [
        {
          "internalType": "bool",
          "name": "",
          "type": "bool"
        }
      ],
      "stateMutability": "view",
      "type": "function"
    },
    {
      "inputs": [],
      "name": "targetGoal",
      "outputs": [
        {
          "internalType": "uint256",
          "name": "",
          "type": "uint256"
        }
      ],
      "stateMutability": "view",
      "type": "function"
    },
    {
      "inputs": [],
      "name": "totalRaised",
      "outputs": [
        {
          "internalType": "uint256",
          "name": "",
          "type": "uint256"
        }
      ],
      "stateMutability": "view",
      "type": "function"
    },
    {
      "inputs": [],
      "name": "withdrawFunds",
      "outputs": [],
      "stateMutability": "nonpayable",
      "type": "function"
    }
  ],
  "bytecode": "0x60e060405234801561000f575f5ffd5b506040516107c83803806107c883398101604081905261002e91610058565b3360805260a082905261004763ffffffff82164261008e565b63ffffffff1660c052506100b39050565b5f5f60408385031215610069575f5ffd5b82519150602083015163ffffffff81168114610083575f5ffd5b809150509250929050565b808201808211156100ad57634e487b7160e01b5f52601160045260245ffd5b92915050565b60805160a05160c0516106b56101135f395f818160ff01528181610246015281816103f9015261055801525f81816101470152818161028d015261044001525f818160990152818161020601528181610308015261039201526106b55ff3fe608060405260043610610084575f3560e01c806342e94c901161005757806342e94c9014610177578063ac307fcf146101a2578063b5545a3c146101cb578063c5c4744c146101df578063d7bb99ba146101f3575f5ffd5b806302d05d3f1461008857806324600fc3146100d857806329dcb0cf146100ee57806342320eac14610136575b5f5ffd5b348015610093575f5ffd5b506100bb7f000000000000000000000000000000000000000000000000000000000000000081565b6040516001600160a01b0390911681526020015b60405180910390f35b3480156100e3575f5ffd5b506100ec6101fb565b005b3480156100f9575f5ffd5b506101217f000000000000000000000000000000000000000000000000000000000000000081565b60405163ffffffff90911681526020016100cf565b348015610141575f5ffd5b506101697f000000000000000000000000000000000000000000000000000000000000000081565b6040519081526020016100cf565b348015610182575f5ffd5b5061016961019136600461062d565b60026020525f908152604090205481565b3480156101ad575f5ffd5b506001546101bb9060ff1681565b60405190151581526020016100cf565b3480156101d6575f5ffd5b506100ec6103f7565b3480156101ea575f5ffd5b506101695f5481565b6100ec610556565b336001600160a01b037f00000000000000000000000000000000000000000000000000000000000000001614610244576040516393687c0b60e01b815260040160405180910390fd5b7f000000000000000000000000000000000000000000000000000000000000000063ffffffff1642101561028b5760405163b4469b3560e01b815260040160405180910390fd5b7f00000000000000000000000000000000000000000000000000000000000000005f5410156102cd57604051630456f77560e21b815260040160405180910390fd5b60015460ff16156102f157604051636507689f60e01b815260040160405180910390fd5b6001805460ff1916811790555f80546040519091907f00000000000000000000000000000000000000000000000000000000000000006001600160a01b03169083908381818185875af1925050503d805f8114610369576040519150601f19603f3d011682016040523d82523d5f602084013e61036e565b606091505b5050905080610390576040516312171d8360e31b815260040160405180910390fd5b7f00000000000000000000000000000000000000000000000000000000000000006001600160a01b03167feaff4b37086828766ad3268786972c0cd24259d4c87a80f9d3963a3c3d999b0d836040516103eb91815260200190565b60405180910390a25050565b7f000000000000000000000000000000000000000000000000000000000000000063ffffffff1642101561043e5760405163b4469b3560e01b815260040160405180910390fd5b7f00000000000000000000000000000000000000000000000000000000000000005f541061047f57604051634d09533360e01b815260040160405180910390fd5b335f90815260026020526040812054908190036104af57604051634625bdf760e01b815260040160405180910390fd5b335f818152600260205260408082208290555190919083908381818185875af1925050503d805f81146104fd576040519150601f19603f3d011682016040523d82523d5f602084013e610502565b606091505b5050905080610524576040516312171d8360e31b815260040160405180910390fd5b60405182815233907f358fe4192934d3bf28ae181feda1f4bd08ca67f5e2fad55582cce5eb67304ae9906020016103eb565b7f000000000000000000000000000000000000000000000000000000000000000063ffffffff16421061059c5760405163154eb81560e21b815260040160405180910390fd5b345f036105bc57604051631570544960e31b815260040160405180910390fd5b335f90815260026020526040812080543492906105da90849061065a565b92505081905550345f5f8282546105f1919061065a565b909155505060405134815233907f62722348256371b5147820d6cad90c40fd2da1ccee18c3ed52c0bca5a61dbbab9060200160405180910390a2565b5f6020828403121561063d575f5ffd5b81356001600160a01b0381168114610653575f5ffd5b9392505050565b8082018082111561067957634e487b7160e01b5f52601160045260245ffd5b9291505056fea2646970667358221220e917484c5e9c7c7200b3a802a102107ea7036a258a7e24d95302b320b2ed370464736f6c634300081c0033",
  "linkReferences": {},
  "deployedLinkReferences": {},
  "immutableReferences": {
    "8090": [
      {
        "length": 32,
        "start": 153
      },
      {
        "length": 32,
        "start": 518
      },
      {
        "length": 32,
        "start": 776
      },
      {
        "length": 32,
        "start": 914
      }
    ],
    "8092": [
      {
        "length": 32,
        "start": 327
      },
      {
        "length": 32,
        "start": 653
      },
      {
        "length": 32,
        "start": 1088
      }
    ],
    "8094": [
      {
        "length": 32,
        "start": 255
      },
      {
        "length": 32,
        "start": 582
      },
      {
        "length": 32,
        "start": 1017
      },
      {
        "length": 32,
        "start": 1368
      }
    ]
  },
  "inputSourceName": "project/contracts/CrowdFund.sol",
  "buildInfoId": "solc-0_8_28-289d210c210b2135cd32ec10d8518c05cbbea5da"
}