{
  "_format": "hh3-artifact-1",
  "contractName": "YieldVault",
  "sourceName": "contracts/YieldVault.sol",
  "abi": [
    {
      "inputs": [
        {
          "internalType": "address",
          "name": "_asset",
          "type": "address"
        },
        {
          "internalType": "string",
          "name": "_name",
          "type": "string"
        },
        {
          "internalType": "string",
          "name": "_symbol",
          "type": "string"
        }
      ],
      "stateMutability": "nonpayable",
      "type": "constructor"
    },
    {
      "inputs": [],
      "name": "TransferFailed",
      "type": "error"
    },
    {
      "inputs": [],
      "name": "ZeroAssets",
      "type": "error"
    },
    {
      "inputs": [],
      "name": "ZeroShares",
      "type": "error"
    },
    {
      "anonymous": false,
      "inputs": [
        {
          "indexed": true,
          "internalType": "address",
          "name": "caller",
          "type": "address"
        },
        {
          "indexed": true,
          "internalType": "address",
          "name": "owner",
          "type": "address"
        },
        {
          "indexed": false,
          "internalType": "uint256",
          "name": "assets",
          "type": "uint256"
        },
        {
          "indexed": false,
          "internalType": "uint256",
          "name": "shares",
          "type": "uint256"
        }
      ],
      "name": "Deposit",
      "type": "event"
    },
    {
      "anonymous": false,
      "inputs": [
        {
          "indexed": true,
          "internalType": "address",
          "name": "caller",
          "type": "address"
        },
        {
          "indexed": true,
          "internalType": "address",
          "name": "receiver",
          "type": "address"
        },
        {
          "indexed": false,
          "internalType": "uint256",
          "name": "assets",
          "type": "uint256"
        },
        {
          "indexed": false,
          "internalType": "uint256",
          "name": "shares",
          "type": "uint256"
        }
      ],
      "name": "Withdraw",
      "type": "event"
    },
    {
      "anonymous": false,
      "inputs": [
        {
          "indexed": false,
          "internalType": "uint256",
          "name": "amount",
          "type": "uint256"
        }
      ],
      "name": "YieldDistributed",
      "type": "event"
    },
    {
      "inputs": [],
      "name": "asset",
      "outputs": [
        {
          "internalType": "contract IERC20",
          "name": "",
          "type": "address"
        }
      ],
      "stateMutability": "view",
      "type": "function"
    },
    {
      "inputs": [
        {
          "internalType": "address",
          "name": "",
          "type": "address"
        }
      ],
      "name": "balanceOf",
      "outputs": [
        {
          "internalType": "uint256",
          "name": "",
          "type": "uint256"
        }
      ],
      "stateMutability": "view",
      "type": "function"
    },
    {
      "inputs": [
        {
          "internalType": "uint256",
          "name": "shares",
          "type": "uint256"
        }
      ],
      "name": "convertToAssets",
      "outputs": [
        {
          "internalType": "uint256",
          "name": "",
          "type": "uint256"
        }
      ],
      "stateMutability": "view",
      "type": "function"
    },
    {
      "inputs": [
        {
          "internalType": "uint256",
          "name": "assets",
          "type": "uint256"
        }
      ],
      "name": "convertToShares",
      "outputs": [
        {
          "internalType": "uint256",
          "name": "",
          "type": "uint256"
        }
      ],
      "stateMutability": "view",
      "type": "function"
    },
    {
      "inputs": [
        {
          "internalType": "uint256",
          "name": "assets",
          "type": "uint256"
        },
        {
          "internalType": "address",
          "name": "receiver",
          "type": "address"
        }
      ],
      "name": "deposit",
      "outputs": [
        {
          "internalType": "uint256",
          "name": "shares",
          "type": "uint256"
        }
      ],
      "stateMutability": "nonpayable",
      "type": "function"
    },
    {
      "inputs": [],
      "name": "name",
      "outputs": [
        {
          "internalType": "string",
          "name": "",
          "type": "string"
        }
      ],
      "stateMutability": "view",
      "type": "function"
    },
    {
      "inputs": [
        {
          "internalType": "uint256",
          "name": "amount",
          "type": "uint256"
        }
      ],
      "name": "simulateYieldProduction",
      "outputs": [],
      "stateMutability": "nonpayable",
      "type": "function"
    },
    {
      "inputs": [],
      "name": "symbol",
      "outputs": [
        {
          "internalType": "string",
          "name": "",
          "type": "string"
        }
      ],
      "stateMutability": "view",
      "type": "function"
    },
    {
      "inputs": [],
      "name": "totalAssets",
      "outputs": [
        {
          "internalType": "uint256",
          "name": "",
          "type": "uint256"
        }
      ],
      "stateMutability": "view",
      "type": "function"
    },
    {
      "inputs": [],
      "name": "totalSupply",
      "outputs": [
        {
          "internalType": "uint256",
          "name": "",
          "type": "uint256"
        }
      ],
      "stateMutability": "view",
      "type": "function"
    },
    {
      "inputs": [
        {
          "internalType": "uint256",
          "name": "shares",
          "type": "uint256"
        },
        {
          "internalType": "address",
          "name": "receiver",
          "type": "address"
        }
      ],
      "name": "withdraw",
      "outputs": [
        {
          "internalType": "uint256",
          "name": "assets",
          "type": "uint256"
        }
      ],
      "stateMutability": "nonpayable",
      "type": "function"
    }
  ],
  "bytecode": "0x60a060405234801561000f575f5ffd5b50604051610c0b380380610c0b83398101604081905261002e916100f9565b6001600160a01b0383166080525f61004683826101ff565b50600161005382826101ff565b505050506102b9565b634e487b7160e01b5f52604160045260245ffd5b5f82601f83011261007f575f5ffd5b81516001600160401b038111156100985761009861005c565b604051601f8201601f19908116603f011681016001600160401b03811182821017156100c6576100c661005c565b6040528181528382016020018510156100dd575f5ffd5b8160208501602083015e5f918101602001919091529392505050565b5f5f5f6060848603121561010b575f5ffd5b83516001600160a01b0381168114610121575f5ffd5b60208501519093506001600160401b0381111561013c575f5ffd5b61014886828701610070565b604086015190935090506001600160401b03811115610165575f5ffd5b61017186828701610070565b9150509250925092565b600181811c9082168061018f57607f821691505b6020821081036101ad57634e487b7160e01b5f52602260045260245ffd5b50919050565b601f8211156101fa57805f5260205f20601f840160051c810160208510156101d85750805b601f840160051c820191505b818110156101f7575f81556001016101e4565b50505b505050565b81516001600160401b038111156102185761021861005c565b61022c81610226845461017b565b846101b3565b6020601f82116001811461025e575f83156102475750848201515b5f19600385901b1c1916600184901b1784556101f7565b5f84815260208120601f198516915b8281101561028d578785015182556020948501946001909201910161026d565b50848210156102aa57868401515f19600387901b60f8161c191681555b50505050600190811b01905550565b60805161091e6102ed5f395f818161010d015281816102870152818161037801528181610526015261066e015261091e5ff3fe608060405234801561000f575f5ffd5b50600436106100a5575f3560e01c806338d52e0f1161006e57806338d52e0f146101085780636e553f651461014757806370a082311461015a57806395d89b4114610179578063c09fa33f14610181578063c6e6f59214610196575f5ffd5b8062f714ce146100a957806301e1d114146100cf57806306fdde03146100d757806307a2d13a146100ec57806318160ddd146100ff575b5f5ffd5b6100bc6100b7366004610774565b6101a9565b6040519081526020015b60405180910390f35b6100bc610361565b6100df6103ee565b6040516100c6919061079e565b6100bc6100fa3660046107d3565b610479565b6100bc60025481565b61012f7f000000000000000000000000000000000000000000000000000000000000000081565b6040516001600160a01b0390911681526020016100c6565b6100bc610155366004610774565b6104b6565b6100bc6101683660046107ea565b60036020525f908152604090205481565b6100df61063d565b61019461018f3660046107d3565b61064a565b005b6100bc6101a43660046107d3565b610737565b5f825f036101ca57604051639811e0c760e01b815260040160405180910390fd5b335f908152600360205260409020548311156101f957604051639811e0c760e01b815260040160405180910390fd5b61020283610479565b9050805f0361022457604051630cb65c7760e21b815260040160405180910390fd5b335f908152600360205260408120805485929061024290849061081e565b925050819055508260025f82825461025a919061081e565b909155505060405163a9059cbb60e01b81526001600160a01b038381166004830152602482018390525f917f00000000000000000000000000000000000000000000000000000000000000009091169063a9059cbb906044016020604051808303815f875af11580156102cf573d5f5f3e3d5ffd5b505050506040513d601f19601f820116820180604052508101906102f39190610831565b905080610313576040516312171d8360e31b815260040160405180910390fd5b60408051838152602081018690526001600160a01b0385169133917ff341246adaac6f497bc2a656f546ab9e182111d630394f0c57c710a59a2cb56791015b60405180910390a35092915050565b6040516370a0823160e01b81523060048201525f907f00000000000000000000000000000000000000000000000000000000000000006001600160a01b0316906370a0823190602401602060405180830381865afa1580156103c5573d5f5f3e3d5ffd5b505050506040513d601f19601f820116820180604052508101906103e99190610850565b905090565b5f80546103fa90610867565b80601f016020809104026020016040519081016040528092919081815260200182805461042690610867565b80156104715780601f1061044857610100808354040283529160200191610471565b820191905f5260205f20905b81548152906001019060200180831161045457829003601f168201915b505050505081565b5f6002546001610489919061089f565b610491610361565b61049c90600161089f565b6104a690846108b2565b6104b091906108c9565b92915050565b5f825f036104d757604051630cb65c7760e21b815260040160405180910390fd5b6104e083610737565b9050805f0361050257604051639811e0c760e01b815260040160405180910390fd5b6040516323b872dd60e01b8152336004820152306024820152604481018490525f907f00000000000000000000000000000000000000000000000000000000000000006001600160a01b0316906323b872dd906064016020604051808303815f875af1158015610574573d5f5f3e3d5ffd5b505050506040513d601f19601f820116820180604052508101906105989190610831565b9050806105b8576040516312171d8360e31b815260040160405180910390fd5b8160025f8282546105c9919061089f565b90915550506001600160a01b0383165f90815260036020526040812080548492906105f590849061089f565b909155505060408051858152602081018490526001600160a01b0385169133917fdcbc1c05240f31ff3ad067ef1ee35ce4997762752e3a095284754544f4c709d79101610352565b600180546103fa90610867565b6040516323b872dd60e01b8152336004820152306024820152604481018290525f907f00000000000000000000000000000000000000000000000000000000000000006001600160a01b0316906323b872dd906064016020604051808303815f875af11580156106bc573d5f5f3e3d5ffd5b505050506040513d601f19601f820116820180604052508101906106e09190610831565b905080610700576040516312171d8360e31b815260040160405180910390fd5b6040518281527fe8ed0a697f15301f06fd3d30bc896682e7826c5397076a3eda05844cfc3564809060200160405180910390a15050565b5f610740610361565b61074b90600161089f565b60025461049c90600161089f565b80356001600160a01b038116811461076f575f5ffd5b919050565b5f5f60408385031215610785575f5ffd5b8235915061079560208401610759565b90509250929050565b602081525f82518060208401528060208501604085015e5f604082850101526040601f19601f83011684010191505092915050565b5f602082840312156107e3575f5ffd5b5035919050565b5f602082840312156107fa575f5ffd5b61080382610759565b9392505050565b634e487b7160e01b5f52601160045260245ffd5b818103818111156104b0576104b061080a565b5f60208284031215610841575f5ffd5b81518015158114610803575f5ffd5b5f60208284031215610860575f5ffd5b5051919050565b600181811c9082168061087b57607f821691505b60208210810361089957634e487b7160e01b5f52602260045260245ffd5b50919050565b808201808211156104b0576104b061080a565b80820281158282048414176104b0576104b061080a565b5f826108e357634e487b7160e01b5f52601260045260245ffd5b50049056fea2646970667358221220720ffa2bf7d81e2d7aac3c51e010fbf5dcde564724ba12b5edf1cd121e14024764736f6c634300081c0033",
  "linkReferences": {},
  "deployedLinkReferences": {},
  "immutableReferences": {
    "84": [
      {
        "length": 32,
        "start": 269
      },
      {
        "length": 32,
        "start": 647
      },
      {
        "length": 32,
        "start": 888
      },
      {
        "length": 32,
        "start": 1318
      },
      {
        "length": 32,
        "start": 1646
      }
    ]
  },
  "inputSourceName": "project/contracts/YieldVault.sol",
  "buildInfoId": "solc-0_8_28-2b2f5bc7501dcf611f0afb1b05989e9b9c406629"
}